{
  "abi": [
    {
      "inputs": [
        {
          "internalType": "address",
          "name": "_owner",
          "type": "address"
        },
        {
          "internalType": "string",
          "name": "_description",
          "type": "string"
        },
        {
          "internalType": "string",
          "name": "_termsOfService",
          "type": "string"
        }
      ],
      "stateMutability": "nonpayable",
      "type": "constructor"
    },
    {
      "anonymous": false,
      "inputs": [
        {
          "indexed": false,
          "internalType": "uint256",
          "name": "data",
          "type": "uint256"
        },
        {
          "indexed": true,
          "internalType": "address",
          "name": "owner",
          "type": "address"
        }
      ],
      "name": "DataWritten",
      "type": "event"
    },
    {
      "anonymous": false,
      "inputs": [
        {
          "indexed": false,
          "internalType": "address",
          "name": "a",
          "type": "address"
        },
        {
          "indexed": false,
          "internalType": "address",
          "name": "opposer",
          "type": "address"
        }
      ],
      "name": "OppositionAdded",
      "type": "event"
    },
    {
      "anonymous": false,
      "inputs": [
        {
          "indexed": false,
          "internalType": "address",
          "name": "a",
          "type": "address"
        },
        {
          "indexed": false,
          "internalType": "address",
          "name": "opposer",
          "type": "address"
        }
      ],
      "name": "OppositionRemoved",
      "type": "event"
    },
    {
      "anonymous": false,
      "inputs": [
        {
          "indexed": false,
          "internalType": "address",
          "name": "a",
          "type": "address"
        }
      ],
      "name": "OwnerAdded",
      "type": "event"
    },
    {
      "anonymous": false,
      "inputs": [
        {
          "indexed": false,
          "internalType": "address",
          "name": "a",
          "type": "address"
        }
      ],
      "name": "OwnerRemoved",
      "type": "event"
    },
    {
      "anonymous": false,
      "inputs": [
        {
          "indexed": false,
          "internalType": "address",
          "name": "a",
          "type": "address"
        },
        {
          "indexed": false,
          "internalType": "address",
          "name": "supporter",
          "type": "address"
        }
      ],
      "name": "SupportAdded",
      "type": "event"
    },
    {
      "anonymous": false,
      "inputs": [
        {
          "indexed": false,
          "internalType": "address",
          "name": "a",
          "type": "address"
        },
        {
          "indexed": false,
          "internalType": "address",
          "name": "supporter",
          "type": "address"
        }
      ],
      "name": "SupportRemoved",
      "type": "event"
    },
    {
      "inputs": [],
      "name": "acceptTermsOfService",
      "outputs": [],
      "stateMutability": "nonpayable",
      "type": "function"
    },
    {
      "inputs": [
        {
          "internalType": "address",
          "name": "",
          "type": "address"
        }
      ],
      "name": "acceptedTermsOfService",
      "outputs": [
        {
          "internalType": "bool",
          "name": "",
          "type": "bool"
        }
      ],
      "stateMutability": "view",
      "type": "function"
    },
    {
      "inputs": [
        {
          "internalType": "address",
          "name": "a",
          "type": "address"
        }
      ],
      "name": "add",
      "outputs": [],
      "stateMutability": "nonpayable",
      "type": "function"
    },
    {
      "inputs": [],
      "name": "description",
      "outputs": [
        {
          "internalType": "string",
          "name": "",
          "type": "string"
        }
      ],
      "stateMutability": "view",
      "type": "function"
    },
    {
      "inputs": [],
      "name": "medianValue",
      "outputs": [
        {
          "internalType": "uint256",
          "name": "",
          "type": "uint256"
        }
      ],
      "stateMutability": "view",
      "type": "function"
    },
    {
      "inputs": [],
      "name": "nonce",
      "outputs": [
        {
          "internalType": "uint256",
          "name": "",
          "type": "uint256"
        }
      ],
      "stateMutability": "view",
      "type": "function"
    },
    {
      "inputs": [],
      "name": "numOwners",
      "outputs": [
        {
          "internalType": "uint256",
          "name": "",
          "type": "uint256"
        }
      ],
      "stateMutability": "view",
      "type": "function"
    },
    {
      "inputs": [
        {
          "internalType": "address",
          "name": "a",
          "type": "address"
        }
      ],
      "name": "oppose",
      "outputs": [],
      "stateMutability": "nonpayable",
      "type": "function"
    },
    {
      "inputs": [
        {
          "internalType": "address",
          "name": "",
          "type": "address"
        },
        {
          "internalType": "address",
          "name": "",
          "type": "address"
        }
      ],
      "name": "opposers",
      "outputs": [
        {
          "internalType": "bool",
          "name": "",
          "type": "bool"
        }
      ],
      "stateMutability": "view",
      "type": "function"
    },
    {
      "inputs": [
        {
          "internalType": "address",
          "name": "",
          "type": "address"
        },
        {
          "internalType": "uint256",
          "name": "",
          "type": "uint256"
        }
      ],
      "name": "opposing",
      "outputs": [
        {
          "internalType": "address",
          "name": "",
          "type": "address"
        }
      ],
      "stateMutability": "view",
      "type": "function"
    },
    {
      "inputs": [
        {
          "internalType": "address",
          "name": "",
          "type": "address"
        }
      ],
      "name": "oppositionCounter",
      "outputs": [
        {
          "internalType": "uint256",
          "name": "",
          "type": "uint256"
        }
      ],
      "stateMutability": "view",
      "type": "function"
    },
    {
      "inputs": [
        {
          "internalType": "address",
          "name": "",
          "type": "address"
        }
      ],
      "name": "owner",
      "outputs": [
        {
          "internalType": "bool",
          "name": "",
          "type": "bool"
        }
      ],
      "stateMutability": "view",
      "type": "function"
    },
    {
      "inputs": [],
      "name": "readData",
      "outputs": [
        {
          "internalType": "uint256",
          "name": "",
          "type": "uint256"
        }
      ],
      "stateMutability": "view",
      "type": "function"
    },
    {
      "inputs": [
        {
          "internalType": "address",
          "name": "a",
          "type": "address"
        }
      ],
      "name": "remove",
      "outputs": [],
      "stateMutability": "nonpayable",
      "type": "function"
    },
    {
      "inputs": [
        {
          "internalType": "address",
          "name": "a",
          "type": "address"
        }
      ],
      "name": "support",
      "outputs": [],
      "stateMutability": "nonpayable",
      "type": "function"
    },
    {
      "inputs": [
        {
          "internalType": "address",
          "name": "",
          "type": "address"
        }
      ],
      "name": "supportCounter",
      "outputs": [
        {
          "internalType": "uint256",
          "name": "",
          "type": "uint256"
        }
      ],
      "stateMutability": "view",
      "type": "function"
    },
    {
      "inputs": [
        {
          "internalType": "address",
          "name": "",
          "type": "address"
        },
        {
          "internalType": "address",
          "name": "",
          "type": "address"
        }
      ],
      "name": "supporters",
      "outputs": [
        {
          "internalType": "bool",
          "name": "",
          "type": "bool"
        }
      ],
      "stateMutability": "view",
      "type": "function"
    },
    {
      "inputs": [
        {
          "internalType": "address",
          "name": "",
          "type": "address"
        },
        {
          "internalType": "uint256",
          "name": "",
          "type": "uint256"
        }
      ],
      "name": "supporting",
      "outputs": [
        {
          "internalType": "address",
          "name": "",
          "type": "address"
        }
      ],
      "stateMutability": "view",
      "type": "function"
    },
    {
      "inputs": [],
      "name": "termsOfService",
      "outputs": [
        {
          "internalType": "string",
          "name": "",
          "type": "string"
        }
      ],
      "stateMutability": "view",
      "type": "function"
    },
    {
      "inputs": [
        {
          "internalType": "address",
          "name": "a",
          "type": "address"
        }
      ],
      "name": "unoppose",
      "outputs": [],
      "stateMutability": "nonpayable",
      "type": "function"
    },
    {
      "inputs": [
        {
          "internalType": "address",
          "name": "a",
          "type": "address"
        }
      ],
      "name": "unsupport",
      "outputs": [],
      "stateMutability": "nonpayable",
      "type": "function"
    },
    {
      "inputs": [
        {
          "internalType": "uint256",
          "name": "_data",
          "type": "uint256"
        }
      ],
      "name": "writeData",
      "outputs": [],
      "stateMutability": "nonpayable",
      "type": "function"
    }
  ],
  "bytecode": {
    "object": "0x60806040523480156200001157600080fd5b506040516200181b3803806200181b83398101604081905262000034916200014d565b600160008181556001600160a01b0385168152602082905260409020805460ff19169091179055600862000069838262000266565b50600962000078828262000266565b50506000600b5550620003329050565b634e487b7160e01b600052604160045260246000fd5b600082601f830112620000b057600080fd5b81516001600160401b0380821115620000cd57620000cd62000088565b604051601f8301601f19908116603f01168101908282118183101715620000f857620000f862000088565b816040528381526020925086838588010111156200011557600080fd5b600091505b838210156200013957858201830151818301840152908201906200011a565b600093810190920192909252949350505050565b6000806000606084860312156200016357600080fd5b83516001600160a01b03811681146200017b57600080fd5b60208501519093506001600160401b03808211156200019957600080fd5b620001a7878388016200009e565b93506040860151915080821115620001be57600080fd5b50620001cd868287016200009e565b9150509250925092565b600181811c90821680620001ec57607f821691505b6020821081036200020d57634e487b7160e01b600052602260045260246000fd5b50919050565b601f8211156200026157600081815260208120601f850160051c810160208610156200023c5750805b601f850160051c820191505b818110156200025d5782815560010162000248565b5050505b505050565b81516001600160401b0381111562000282576200028262000088565b6200029a81620002938454620001d7565b8462000213565b602080601f831160018114620002d25760008415620002b95750858301515b600019600386901b1c1916600185901b1785556200025d565b600085815260208120601f198616915b828110156200030357888601518255948401946001909101908401620002e2565b5085821015620003225787850151600019600388901b60f8161c191681555b5050505050600190811b01905550565b6114d980620003426000396000f3fe608060405234801561001057600080fd5b50600436106101425760003560e01c806367d6aeb3116100b8578063affed0e01161007c578063affed0e0146102f0578063bef55ef3146102f9578063dddd9e9614610301578063e660cc0814610320578063f6da5ca014610333578063f7cbc3901461036157600080fd5b806367d6aeb3146102a65780636de54d31146102b95780637284e416146102cc57806387ab18e1146102d45780638f889f8e146102dd57600080fd5b80633fc9d6211161010a5780633fc9d621146101f65780634e192655146102095780634f855b951461022c5780635fab6dc414610243578063666e1b391461026357806367225e371461028657600080fd5b80630a3b0a4f146101475780631e117f491461015c57806329092d0e1461017a578063304b69af1461018d5780633f45cd8b146101b8575b600080fd5b61015a610155366004611270565b610374565b005b6101646104c3565b6040516101719190611292565b60405180910390f35b61015a610188366004611270565b610551565b6101a061019b3660046112e0565b6107d1565b6040516001600160a01b039091168152602001610171565b6101e66101c636600461130a565b600460209081526000928352604080842090915290825290205460ff1681565b6040519015158152602001610171565b61015a610204366004611270565b610809565b6101e6610217366004611270565b600d6020526000908152604090205460ff1681565b610235600c5481565b604051908152602001610171565b610235610251366004611270565b60026020526000908152604090205481565b6101e6610271366004611270565b60016020526000908152604090205460ff1681565b610235610294366004611270565b60036020526000908152604090205481565b61015a6102b4366004611270565b610845565b6101a06102c73660046112e0565b61087e565b61016461089a565b61023560005481565b61015a6102eb36600461133d565b6108a7565b610235600b5481565b610235610be7565b61015a336000908152600d60205260409020805460ff19166001179055565b61015a61032e366004611270565b610c4d565b6101e661034136600461130a565b600560209081526000928352604080842090915290825290205460ff1681565b61015a61036f366004611270565b610dbf565b6001600160a01b038116600090815260016020526040902054819060ff16156103e45760405162461bcd60e51b815260206004820152601b60248201527f6164647265737320697320616c726561647920616e206f776e6572000000000060448201526064015b60405180910390fd5b60026000546103f3919061136c565b6001600160a01b0383166000908152600260205260409020541161044f5760405162461bcd60e51b8152602060048201526013602482015272496e73756666696369656e742071756f72756d60681b60448201526064016103db565b6001600080828254610461919061138e565b90915550506001600160a01b038216600081815260016020818152604092839020805460ff191690921790915590519182527f994a936646fe87ffe4f1e469d3d6aa417d6b855598397f323de5b449f765f0c391015b60405180910390a15050565b600980546104d0906113a7565b80601f01602080910402602001604051908101604052809291908181526020018280546104fc906113a7565b80156105495780601f1061051e57610100808354040283529160200191610549565b820191906000526020600020905b81548152906001019060200180831161052c57829003601f168201915b505050505081565b6001600160a01b038116600090815260016020526040902054819060ff166105bb5760405162461bcd60e51b815260206004820152601760248201527f61646472657373206973206e6f7420616e206f776e657200000000000000000060448201526064016103db565b60026000546105ca919061136c565b6001600160a01b038316600090815260036020526040902054116106265760405162461bcd60e51b8152602060048201526013602482015272496e73756666696369656e742071756f72756d60681b60448201526064016103db565b600160008082825461063891906113e1565b90915550600090505b6001600160a01b0383166000908152600660205260409020548110156106bd576001600160a01b038316600090815260066020526040902080546106ab919083908110610690576106906113f4565b6000918252602090912001546001600160a01b031684610f28565b806106b58161140a565b915050610641565b506001600160a01b03821660009081526006602052604081206106df91611222565b60005b6001600160a01b03831660009081526007602052604090205481101561075e576001600160a01b0383166000908152600760205260409020805461074c919083908110610731576107316113f4565b6000918252602090912001546001600160a01b031684611006565b806107568161140a565b9150506106e2565b506001600160a01b038216600090815260076020526040812061078091611222565b6001600160a01b038216600081815260016020908152604091829020805460ff1916905590519182527f58619076adf5bb0943d100ef88d52d7c3fd691b19d3a9071b555b651fbf418da91016104b7565b600760205281600052604060002081815481106107ed57600080fd5b6000918252602090912001546001600160a01b03169150829050565b3360009081526001602052604090205460ff166108385760405162461bcd60e51b81526004016103db90611423565b6108428133610f28565b50565b3360009081526001602052604090205460ff166108745760405162461bcd60e51b81526004016103db90611423565b6108428133611006565b600660205281600052604060002081815481106107ed57600080fd5b600880546104d0906113a7565b3360009081526001602052604090205460ff166108d65760405162461bcd60e51b81526004016103db90611423565b604080518082018252828152336020808301828152600b80546000908152600a8452868120955186559151600190950180546001600160a01b0319166001600160a01b03909616959095179094559254835291839020549251928352917f33b83618888d358e5cbd39503bc0d5ed6ba434bb57e7901d7e910b50dbeb0e69910160405180910390a2600b805490600061096e8361140a565b909155505060408051600380825260808201909252600091602082016060803683375050604080516003808252608082019092529293506000929150602082016060803683370190505090506000806001600b546109cc9190611449565b90505b600081121580156109e05750600382105b15610af957600160005b83811015610a55576000838152600a602052604090206001015485516001600160a01b0390911690869083908110610a2457610a246113f4565b60200260200101516001600160a01b031603610a435760009150610a55565b80610a4d8161140a565b9150506109ea565b508015610ae6576000828152600a60205260409020548551869085908110610a7f57610a7f6113f4565b6020908102919091018101919091526000838152600a909152604090206001015484516001600160a01b0390911690859085908110610ac057610ac06113f4565b6001600160a01b039092166020928302919091019091015282610ae28161140a565b9350505b5080610af181611470565b9150506109cf565b5080600103610b285782600081518110610b1557610b156113f4565b6020026020010151600c81905550610be1565b80600203610b8457600283600181518110610b4557610b456113f4565b602002602001015184600081518110610b6057610b606113f4565b6020026020010151610b72919061138e565b610b7c919061136c565b600c55610be1565b610bdd83600081518110610b9a57610b9a6113f4565b602002602001015184600181518110610bb557610bb56113f4565b602002602001015185600281518110610bd057610bd06113f4565b60200260200101516110e3565b600c555b50505050565b336000908152600d602052604081205460ff16610c465760405162461bcd60e51b815260206004820152601d60248201527f5465726d73206f662053657276696365206e6f7420616363657074656400000060448201526064016103db565b50600c5490565b3360009081526001602052604090205460ff16610c7c5760405162461bcd60e51b81526004016103db90611423565b6001600160a01b038116600090815260046020908152604080832033845290915290205460ff1615610ce55760405162461bcd60e51b8152602060048201526012602482015271616c726561647920737570706f7274696e6760701b60448201526064016103db565b6001600160a01b0381166000908152600260205260408120805460019290610d0e90849061138e565b90915550506001600160a01b038116600081815260046020908152604080832033808552908352818420805460ff19166001908117909155600684529184208054928301815584529190922090910180546001600160a01b031916909217909155610d7a908290611006565b604080516001600160a01b03831681523360208201527fae71767aad8e36528115dfc29d644823b7a154873b9cd22fe1fbceb074b86bd691015b60405180910390a150565b3360009081526001602052604090205460ff16610dee5760405162461bcd60e51b81526004016103db90611423565b6001600160a01b038116600090815260056020908152604080832033845290915290205460ff1615610e555760405162461bcd60e51b815260206004820152601060248201526f616c7265616479206f70706f73696e6760801b60448201526064016103db565b6001600160a01b0381166000908152600360205260408120805460019290610e7e90849061138e565b90915550506001600160a01b038116600081815260056020908152604080832033808552908352818420805460ff19166001908117909155600784529184208054928301815584529190922090910180546001600160a01b031916909217909155610eea908290610f28565b604080516001600160a01b03831681523360208201527fdaefd7e1f1c540ac266ada14d14c3ed3bf4ab7a722d1ff85578a40f573a0c8779101610db4565b6001600160a01b0380831660009081526004602090815260408083209385168352929052205460ff1615611002576001600160a01b0382166000908152600260205260408120805460019290610f7f9084906113e1565b90915550506001600160a01b0380831660009081526004602090815260408083209385168352928152828220805460ff191690556006905220610fc29083611114565b604080516001600160a01b038085168252831660208201527f25203554e06d7ed0bdf690f598f2702a329d230077d9a3c2089d052a77981a0291016104b7565b5050565b6001600160a01b0380831660009081526005602090815260408083209385168352929052205460ff1615611002576001600160a01b038216600090815260036020526040812080546001929061105d9084906113e1565b90915550506001600160a01b0380831660009081526005602090815260408083209385168352928152828220805460ff1916905533825260079052206110a39083611114565b604080516001600160a01b038085168252831660208201527f63a8b3c7af4fafb0c845e277d80036a0f7f07111f59f2681d9bae6b1e66f104091016104b7565b6000828411156110f1579192915b818411156110fd579092905b81831061110a578161110c565b825b949350505050565b60005b816001600160a01b0316838281548110611133576111336113f4565b6000918252602090912001546001600160a01b0316148015906111565750825481105b1561116d57806111658161140a565b915050611117565b8254839061117d906001906113e1565b8154811061118d5761118d6113f4565b9060005260206000200160009054906101000a90046001600160a01b03168382815481106111bd576111bd6113f4565b9060005260206000200160006101000a8154816001600160a01b0302191690836001600160a01b03160217905550828054806111fb576111fb61148d565b600082815260209020810160001990810180546001600160a01b0319169055019055505050565b508054600082559060005260206000209081019061084291905b80821115611250576000815560010161123c565b5090565b80356001600160a01b038116811461126b57600080fd5b919050565b60006020828403121561128257600080fd5b61128b82611254565b9392505050565b600060208083528351808285015260005b818110156112bf578581018301518582016040015282016112a3565b506000604082860101526040601f19601f8301168501019250505092915050565b600080604083850312156112f357600080fd5b6112fc83611254565b946020939093013593505050565b6000806040838503121561131d57600080fd5b61132683611254565b915061133460208401611254565b90509250929050565b60006020828403121561134f57600080fd5b5035919050565b634e487b7160e01b600052601160045260246000fd5b60008261138957634e487b7160e01b600052601260045260246000fd5b500490565b808201808211156113a1576113a1611356565b92915050565b600181811c908216806113bb57607f821691505b6020821081036113db57634e487b7160e01b600052602260045260246000fd5b50919050565b818103818111156113a1576113a1611356565b634e487b7160e01b600052603260045260246000fd5b60006001820161141c5761141c611356565b5060010190565b6020808252600c908201526b155b985d5d1a1bdc9a5e995960a21b604082015260600190565b818103600083128015838313168383128216171561146957611469611356565b5092915050565b6000600160ff1b820161148557611485611356565b506000190190565b634e487b7160e01b600052603160045260246000fdfea2646970667358221220c32d9d55d19818f0a35d7d3fc0ff91062341a02fe24f464a8bd57d23ecc5c20c64736f6c63430008110033",
    "linkReferences": {}
  },
  "methodIdentifiers": {
    "acceptTermsOfService()": "dddd9e96",
    "acceptedTermsOfService(address)": "4e192655",
    "add(address)": "0a3b0a4f",
    "description()": "7284e416",
    "medianValue()": "4f855b95",
    "nonce()": "affed0e0",
    "numOwners()": "87ab18e1",
    "oppose(address)": "f7cbc390",
    "opposers(address,address)": "f6da5ca0",
    "opposing(address,uint256)": "304b69af",
    "oppositionCounter(address)": "67225e37",
    "owner(address)": "666e1b39",
    "readData()": "bef55ef3",
    "remove(address)": "29092d0e",
    "support(address)": "e660cc08",
    "supportCounter(address)": "5fab6dc4",
    "supporters(address,address)": "3f45cd8b",
    "supporting(address,uint256)": "6de54d31",
    "termsOfService()": "1e117f49",
    "unoppose(address)": "67d6aeb3",
    "unsupport(address)": "3fc9d621",
    "writeData(uint256)": "8f889f8e"
  },
  "id": 2
}