{
  "abi": [
    {
      "inputs": [
        {
          "internalType": "address",
          "name": "_owner",
          "type": "address"
        },
        {
          "internalType": "string",
          "name": "_description",
          "type": "string"
        },
        {
          "internalType": "string",
          "name": "_termsOfService",
          "type": "string"
        }
      ],
      "stateMutability": "nonpayable",
      "type": "constructor"
    },
    {
      "anonymous": false,
      "inputs": [
        {
          "indexed": false,
          "internalType": "uint256",
          "name": "data",
          "type": "uint256"
        }
      ],
      "name": "DataWritten",
      "type": "event"
    },
    {
      "anonymous": false,
      "inputs": [
        {
          "indexed": false,
          "internalType": "address",
          "name": "a",
          "type": "address"
        },
        {
          "indexed": false,
          "internalType": "address",
          "name": "opposer",
          "type": "address"
        }
      ],
      "name": "OppositionAdded",
      "type": "event"
    },
    {
      "anonymous": false,
      "inputs": [
        {
          "indexed": false,
          "internalType": "address",
          "name": "a",
          "type": "address"
        },
        {
          "indexed": false,
          "internalType": "address",
          "name": "opposer",
          "type": "address"
        }
      ],
      "name": "OppositionRemoved",
      "type": "event"
    },
    {
      "anonymous": false,
      "inputs": [
        {
          "indexed": false,
          "internalType": "address",
          "name": "a",
          "type": "address"
        }
      ],
      "name": "OwnerAdded",
      "type": "event"
    },
    {
      "anonymous": false,
      "inputs": [
        {
          "indexed": false,
          "internalType": "address",
          "name": "a",
          "type": "address"
        }
      ],
      "name": "OwnerRemoved",
      "type": "event"
    },
    {
      "anonymous": false,
      "inputs": [
        {
          "indexed": false,
          "internalType": "address",
          "name": "a",
          "type": "address"
        },
        {
          "indexed": false,
          "internalType": "address",
          "name": "supporter",
          "type": "address"
        }
      ],
      "name": "SupportAdded",
      "type": "event"
    },
    {
      "anonymous": false,
      "inputs": [
        {
          "indexed": false,
          "internalType": "address",
          "name": "a",
          "type": "address"
        },
        {
          "indexed": false,
          "internalType": "address",
          "name": "supporter",
          "type": "address"
        }
      ],
      "name": "SupportRemoved",
      "type": "event"
    },
    {
      "inputs": [],
      "name": "acceptTermsOfService",
      "outputs": [],
      "stateMutability": "nonpayable",
      "type": "function"
    },
    {
      "inputs": [
        {
          "internalType": "address",
          "name": "",
          "type": "address"
        }
      ],
      "name": "acceptedTermsOfService",
      "outputs": [
        {
          "internalType": "bool",
          "name": "",
          "type": "bool"
        }
      ],
      "stateMutability": "view",
      "type": "function"
    },
    {
      "inputs": [
        {
          "internalType": "address",
          "name": "a",
          "type": "address"
        }
      ],
      "name": "add",
      "outputs": [],
      "stateMutability": "nonpayable",
      "type": "function"
    },
    {
      "inputs": [],
      "name": "description",
      "outputs": [
        {
          "internalType": "string",
          "name": "",
          "type": "string"
        }
      ],
      "stateMutability": "view",
      "type": "function"
    },
    {
      "inputs": [],
      "name": "numOwners",
      "outputs": [
        {
          "internalType": "uint256",
          "name": "",
          "type": "uint256"
        }
      ],
      "stateMutability": "view",
      "type": "function"
    },
    {
      "inputs": [
        {
          "internalType": "address",
          "name": "a",
          "type": "address"
        }
      ],
      "name": "oppose",
      "outputs": [],
      "stateMutability": "nonpayable",
      "type": "function"
    },
    {
      "inputs": [
        {
          "internalType": "address",
          "name": "",
          "type": "address"
        },
        {
          "internalType": "address",
          "name": "",
          "type": "address"
        }
      ],
      "name": "opposers",
      "outputs": [
        {
          "internalType": "bool",
          "name": "",
          "type": "bool"
        }
      ],
      "stateMutability": "view",
      "type": "function"
    },
    {
      "inputs": [
        {
          "internalType": "address",
          "name": "",
          "type": "address"
        },
        {
          "internalType": "uint256",
          "name": "",
          "type": "uint256"
        }
      ],
      "name": "opposing",
      "outputs": [
        {
          "internalType": "address",
          "name": "",
          "type": "address"
        }
      ],
      "stateMutability": "view",
      "type": "function"
    },
    {
      "inputs": [
        {
          "internalType": "address",
          "name": "",
          "type": "address"
        }
      ],
      "name": "oppositionCounter",
      "outputs": [
        {
          "internalType": "uint256",
          "name": "",
          "type": "uint256"
        }
      ],
      "stateMutability": "view",
      "type": "function"
    },
    {
      "inputs": [
        {
          "internalType": "address",
          "name": "",
          "type": "address"
        }
      ],
      "name": "owner",
      "outputs": [
        {
          "internalType": "bool",
          "name": "",
          "type": "bool"
        }
      ],
      "stateMutability": "view",
      "type": "function"
    },
    {
      "inputs": [],
      "name": "readData",
      "outputs": [
        {
          "internalType": "uint256",
          "name": "",
          "type": "uint256"
        }
      ],
      "stateMutability": "view",
      "type": "function"
    },
    {
      "inputs": [
        {
          "internalType": "address",
          "name": "a",
          "type": "address"
        }
      ],
      "name": "remove",
      "outputs": [],
      "stateMutability": "nonpayable",
      "type": "function"
    },
    {
      "inputs": [
        {
          "internalType": "address",
          "name": "a",
          "type": "address"
        }
      ],
      "name": "support",
      "outputs": [],
      "stateMutability": "nonpayable",
      "type": "function"
    },
    {
      "inputs": [
        {
          "internalType": "address",
          "name": "",
          "type": "address"
        }
      ],
      "name": "supportCounter",
      "outputs": [
        {
          "internalType": "uint256",
          "name": "",
          "type": "uint256"
        }
      ],
      "stateMutability": "view",
      "type": "function"
    },
    {
      "inputs": [
        {
          "internalType": "address",
          "name": "",
          "type": "address"
        },
        {
          "internalType": "address",
          "name": "",
          "type": "address"
        }
      ],
      "name": "supporters",
      "outputs": [
        {
          "internalType": "bool",
          "name": "",
          "type": "bool"
        }
      ],
      "stateMutability": "view",
      "type": "function"
    },
    {
      "inputs": [
        {
          "internalType": "address",
          "name": "",
          "type": "address"
        },
        {
          "internalType": "uint256",
          "name": "",
          "type": "uint256"
        }
      ],
      "name": "supporting",
      "outputs": [
        {
          "internalType": "address",
          "name": "",
          "type": "address"
        }
      ],
      "stateMutability": "view",
      "type": "function"
    },
    {
      "inputs": [],
      "name": "termsOfService",
      "outputs": [
        {
          "internalType": "string",
          "name": "",
          "type": "string"
        }
      ],
      "stateMutability": "view",
      "type": "function"
    },
    {
      "inputs": [
        {
          "internalType": "address",
          "name": "a",
          "type": "address"
        }
      ],
      "name": "unoppose",
      "outputs": [],
      "stateMutability": "nonpayable",
      "type": "function"
    },
    {
      "inputs": [
        {
          "internalType": "address",
          "name": "a",
          "type": "address"
        }
      ],
      "name": "unsupport",
      "outputs": [],
      "stateMutability": "nonpayable",
      "type": "function"
    },
    {
      "inputs": [
        {
          "internalType": "uint256",
          "name": "_data",
          "type": "uint256"
        }
      ],
      "name": "writeData",
      "outputs": [],
      "stateMutability": "nonpayable",
      "type": "function"
    }
  ],
  "bytecode": {
    "object": "0x60806040523480156200001157600080fd5b506040516200149c3803806200149c833981016040819052620000349162000147565b600160008181556001600160a01b0385168152602082905260409020805460ff19169091179055600862000069838262000260565b50600962000078828262000260565b505050506200032c565b634e487b7160e01b600052604160045260246000fd5b600082601f830112620000aa57600080fd5b81516001600160401b0380821115620000c757620000c762000082565b604051601f8301601f19908116603f01168101908282118183101715620000f257620000f262000082565b816040528381526020925086838588010111156200010f57600080fd5b600091505b8382101562000133578582018301518183018401529082019062000114565b600093810190920192909252949350505050565b6000806000606084860312156200015d57600080fd5b83516001600160a01b03811681146200017557600080fd5b60208501519093506001600160401b03808211156200019357600080fd5b620001a18783880162000098565b93506040860151915080821115620001b857600080fd5b50620001c78682870162000098565b9150509250925092565b600181811c90821680620001e657607f821691505b6020821081036200020757634e487b7160e01b600052602260045260246000fd5b50919050565b601f8211156200025b57600081815260208120601f850160051c81016020861015620002365750805b601f850160051c820191505b81811015620002575782815560010162000242565b5050505b505050565b81516001600160401b038111156200027c576200027c62000082565b62000294816200028d8454620001d1565b846200020d565b602080601f831160018114620002cc5760008415620002b35750858301515b600019600386901b1c1916600185901b17855562000257565b600085815260208120601f198616915b82811015620002fd57888601518255948401946001909101908401620002dc565b50858210156200031c5787850151600019600388901b60f8161c191681555b5050505050600190811b01905550565b611160806200033c6000396000f3fe608060405234801561001057600080fd5b506004361061012c5760003560e01c806367d6aeb3116100ad578063bef55ef311610071578063bef55ef3146102d1578063dddd9e96146102d9578063e660cc08146102f8578063f6da5ca01461030b578063f7cbc3901461033957600080fd5b806367d6aeb3146102875780636de54d311461029a5780637284e416146102ad57806387ab18e1146102b55780638f889f8e146102be57600080fd5b80633fc9d621116100f45780633fc9d621146101e05780634e192655146101f35780635fab6dc414610216578063666e1b391461024457806367225e371461026757600080fd5b80630a3b0a4f146101315780631e117f491461014657806329092d0e14610164578063304b69af146101775780633f45cd8b146101a2575b600080fd5b61014461013f366004610f3b565b61034c565b005b61014e61049b565b60405161015b9190610f5d565b60405180910390f35b610144610172366004610f3b565b610529565b61018a610185366004610fab565b6107a9565b6040516001600160a01b03909116815260200161015b565b6101d06101b0366004610fd5565b600460209081526000928352604080842090915290825290205460ff1681565b604051901515815260200161015b565b6101446101ee366004610f3b565b6107e1565b6101d0610201366004610f3b565b600b6020526000908152604090205460ff1681565b610236610224366004610f3b565b60026020526000908152604090205481565b60405190815260200161015b565b6101d0610252366004610f3b565b60016020526000908152604090205460ff1681565b610236610275366004610f3b565b60036020526000908152604090205481565b610144610295366004610f3b565b61081d565b61018a6102a8366004610fab565b610856565b61014e610872565b61023660005481565b6101446102cc366004611008565b61087f565b6102366108ea565b610144336000908152600b60205260409020805460ff19166001179055565b610144610306366004610f3b565b610950565b6101d0610319366004610fd5565b600560209081526000928352604080842090915290825290205460ff1681565b610144610347366004610f3b565b610abb565b6001600160a01b038116600090815260016020526040902054819060ff16156103bc5760405162461bcd60e51b815260206004820152601b60248201527f6164647265737320697320616c726561647920616e206f776e6572000000000060448201526064015b60405180910390fd5b60026000546103cb9190611037565b6001600160a01b038316600090815260026020526040902054116104275760405162461bcd60e51b8152602060048201526013602482015272496e73756666696369656e742071756f72756d60681b60448201526064016103b3565b60016000808282546104399190611059565b90915550506001600160a01b038216600081815260016020818152604092839020805460ff191690921790915590519182527f994a936646fe87ffe4f1e469d3d6aa417d6b855598397f323de5b449f765f0c391015b60405180910390a15050565b600980546104a890611072565b80601f01602080910402602001604051908101604052809291908181526020018280546104d490611072565b80156105215780601f106104f657610100808354040283529160200191610521565b820191906000526020600020905b81548152906001019060200180831161050457829003601f168201915b505050505081565b6001600160a01b038116600090815260016020526040902054819060ff166105935760405162461bcd60e51b815260206004820152601760248201527f61646472657373206973206e6f7420616e206f776e657200000000000000000060448201526064016103b3565b60026000546105a29190611037565b6001600160a01b038316600090815260036020526040902054116105fe5760405162461bcd60e51b8152602060048201526013602482015272496e73756666696369656e742071756f72756d60681b60448201526064016103b3565b600160008082825461061091906110ac565b90915550600090505b6001600160a01b038316600090815260066020526040902054811015610695576001600160a01b03831660009081526006602052604090208054610683919083908110610668576106686110bf565b6000918252602090912001546001600160a01b031684610c24565b8061068d816110d5565b915050610619565b506001600160a01b03821660009081526006602052604081206106b791610eed565b60005b6001600160a01b038316600090815260076020526040902054811015610736576001600160a01b03831660009081526007602052604090208054610724919083908110610709576107096110bf565b6000918252602090912001546001600160a01b031684610d02565b8061072e816110d5565b9150506106ba565b506001600160a01b038216600090815260076020526040812061075891610eed565b6001600160a01b038216600081815260016020908152604091829020805460ff1916905590519182527f58619076adf5bb0943d100ef88d52d7c3fd691b19d3a9071b555b651fbf418da910161048f565b600760205281600052604060002081815481106107c557600080fd5b6000918252602090912001546001600160a01b03169150829050565b3360009081526001602052604090205460ff166108105760405162461bcd60e51b81526004016103b3906110ee565b61081a8133610c24565b50565b3360009081526001602052604090205460ff1661084c5760405162461bcd60e51b81526004016103b3906110ee565b61081a8133610d02565b600660205281600052604060002081815481106107c557600080fd5b600880546104a890611072565b3360009081526001602052604090205460ff166108ae5760405162461bcd60e51b81526004016103b3906110ee565b600a8190556040518181527fcd5aa0bc738a8871d6ca28f5b4bec38d2079476c6332056b420423c7aac9420c906020015b60405180910390a150565b336000908152600b602052604081205460ff166109495760405162461bcd60e51b815260206004820152601d60248201527f5465726d73206f662053657276696365206e6f7420616363657074656400000060448201526064016103b3565b50600a5490565b3360009081526001602052604090205460ff1661097f5760405162461bcd60e51b81526004016103b3906110ee565b6001600160a01b038116600090815260046020908152604080832033845290915290205460ff16156109e85760405162461bcd60e51b8152602060048201526012602482015271616c726561647920737570706f7274696e6760701b60448201526064016103b3565b6001600160a01b0381166000908152600260205260408120805460019290610a11908490611059565b90915550506001600160a01b038116600081815260046020908152604080832033808552908352818420805460ff19166001908117909155600684529184208054928301815584529190922090910180546001600160a01b031916909217909155610a7d908290610d02565b604080516001600160a01b03831681523360208201527fae71767aad8e36528115dfc29d644823b7a154873b9cd22fe1fbceb074b86bd691016108df565b3360009081526001602052604090205460ff16610aea5760405162461bcd60e51b81526004016103b3906110ee565b6001600160a01b038116600090815260056020908152604080832033845290915290205460ff1615610b515760405162461bcd60e51b815260206004820152601060248201526f616c7265616479206f70706f73696e6760801b60448201526064016103b3565b6001600160a01b0381166000908152600360205260408120805460019290610b7a908490611059565b90915550506001600160a01b038116600081815260056020908152604080832033808552908352818420805460ff19166001908117909155600784529184208054928301815584529190922090910180546001600160a01b031916909217909155610be6908290610c24565b604080516001600160a01b03831681523360208201527fdaefd7e1f1c540ac266ada14d14c3ed3bf4ab7a722d1ff85578a40f573a0c87791016108df565b6001600160a01b0380831660009081526004602090815260408083209385168352929052205460ff1615610cfe576001600160a01b0382166000908152600260205260408120805460019290610c7b9084906110ac565b90915550506001600160a01b0380831660009081526004602090815260408083209385168352928152828220805460ff191690556006905220610cbe9083610ddf565b604080516001600160a01b038085168252831660208201527f25203554e06d7ed0bdf690f598f2702a329d230077d9a3c2089d052a77981a02910161048f565b5050565b6001600160a01b0380831660009081526005602090815260408083209385168352929052205460ff1615610cfe576001600160a01b0382166000908152600360205260408120805460019290610d599084906110ac565b90915550506001600160a01b0380831660009081526005602090815260408083209385168352928152828220805460ff191690553382526007905220610d9f9083610ddf565b604080516001600160a01b038085168252831660208201527f63a8b3c7af4fafb0c845e277d80036a0f7f07111f59f2681d9bae6b1e66f1040910161048f565b60005b816001600160a01b0316838281548110610dfe57610dfe6110bf565b6000918252602090912001546001600160a01b031614801590610e215750825481105b15610e385780610e30816110d5565b915050610de2565b82548390610e48906001906110ac565b81548110610e5857610e586110bf565b9060005260206000200160009054906101000a90046001600160a01b0316838281548110610e8857610e886110bf565b9060005260206000200160006101000a8154816001600160a01b0302191690836001600160a01b0316021790555082805480610ec657610ec6611114565b600082815260209020810160001990810180546001600160a01b0319169055019055505050565b508054600082559060005260206000209081019061081a91905b80821115610f1b5760008155600101610f07565b5090565b80356001600160a01b0381168114610f3657600080fd5b919050565b600060208284031215610f4d57600080fd5b610f5682610f1f565b9392505050565b600060208083528351808285015260005b81811015610f8a57858101830151858201604001528201610f6e565b506000604082860101526040601f19601f8301168501019250505092915050565b60008060408385031215610fbe57600080fd5b610fc783610f1f565b946020939093013593505050565b60008060408385031215610fe857600080fd5b610ff183610f1f565b9150610fff60208401610f1f565b90509250929050565b60006020828403121561101a57600080fd5b5035919050565b634e487b7160e01b600052601160045260246000fd5b60008261105457634e487b7160e01b600052601260045260246000fd5b500490565b8082018082111561106c5761106c611021565b92915050565b600181811c9082168061108657607f821691505b6020821081036110a657634e487b7160e01b600052602260045260246000fd5b50919050565b8181038181111561106c5761106c611021565b634e487b7160e01b600052603260045260246000fd5b6000600182016110e7576110e7611021565b5060010190565b6020808252600c908201526b155b985d5d1a1bdc9a5e995960a21b604082015260600190565b634e487b7160e01b600052603160045260246000fdfea26469706673582212209f1aac25e983da3a91c1158a05aa3627a66685ef7581476fa204684995a9a46664736f6c63430008110033",
    "linkReferences": {}
  },
  "methodIdentifiers": {
    "acceptTermsOfService()": "dddd9e96",
    "acceptedTermsOfService(address)": "4e192655",
    "add(address)": "0a3b0a4f",
    "description()": "7284e416",
    "numOwners()": "87ab18e1",
    "oppose(address)": "f7cbc390",
    "opposers(address,address)": "f6da5ca0",
    "opposing(address,uint256)": "304b69af",
    "oppositionCounter(address)": "67225e37",
    "owner(address)": "666e1b39",
    "readData()": "bef55ef3",
    "remove(address)": "29092d0e",
    "support(address)": "e660cc08",
    "supportCounter(address)": "5fab6dc4",
    "supporters(address,address)": "3f45cd8b",
    "supporting(address,uint256)": "6de54d31",
    "termsOfService()": "1e117f49",
    "unoppose(address)": "67d6aeb3",
    "unsupport(address)": "3fc9d621",
    "writeData(uint256)": "8f889f8e"
  },
  "id": 3
}